:020000040800F2
:10000000000002206D050008BD050008BD050008C0
:10001000BD050008BD050008BD0500080000000082
:10002000000000000000000000000000BD05000806
:10003000BD05000800000000BD050008BD05000862
:10004000BD050008BD050008BD050008BD05000888
:10005000BD050008BD050008BD050008BD05000878
:10006000BD050008BD050008BD050008BD05000868
:10007000BD050008BD050008BD050008BD05000858
:10008000BD050008BD050008BD050008BD05000848
:10009000BD050008BD050008BD050008BD05000838
:1000A000BD050008BD050008BD050008BD05000828
:1000B000BD050008BD050008BD050008BD05000818
:1000C000BD050008BD050008BD050008BD05000808
:1000D000BD050008BD050008BD050008BD050008F8
:1000E000BD050008BD050008BD050008BD050008E8
:1000F000BD050008BD050008BD050008BD050008D8
:10010000BD050008BD050008BD050008BD050008C7
:10011000BD050008BD050008BD050008BD050008B7
:10012000BD050008BD050008BD050008BD050008A7
:10013000BD0500080000000000000000BD0500082B
:10014000BD050008BD050008BD050008BD05000887
:10015000BD050008BD050008BD050008BD05000877
:10016000BD050008BD050008BD050008BD05000867
:10017000BD050008BD050008BD0500080000000021
:10018000000000000000000000000000000000006F
:10019000BD0500080000000000000000BD050008CB
:1001A000000000000000000000000000BD05000885
:1001B000BD050008BD050008BD050008BD05000817
:0401C000BD05000871
:1001C40010B5054C237833B9044B13B10448AFF38D
:1001D40000800123237010BD5400002000000000A3
:1001E4000806000808B5034B1BB103490348AFF3E5
:1001F400008008BD00000000580000200806000828
:1002040080B400AF084B00221A60084B6FF07F42A5
:100214001A60074B00221A60034B05221A6000BFC4
:10022400BD465DF8047B704710E000E014E000E098
:1002340018E000E080B483B000AF78600A4A7B68BD
:10024400013B1360094B00221A6000BF084B1B6876
:1002540003F48033002BF9D000BF00BF0C37BD4638
:100264005DF8047B704700BF14E000E018E000E094
:1002740010E000E080B584B000AF78600023FB603C
:100284000BE00A4B1B680A4AA2FB03235B091846CE
:10029400FFF7D0FFFB680133FB60FA687B689A4282
:1002A400EFD300BF00BF1037BD4680BD5000002013
:1002B4001F85EB5180B500AF00F07AF8FFF7A0FF7F
:1002C400364B5969364B1A68364813469B0013441B
:1002D4009B0003441B68012202FA03F32F4A0B43D9
:1002E4005361314B59692E4B1A682E4813469B00B3
:1002F40013449B00034404331B68012202FA03F3F2
:10030400294A0B435361264B1A68264913469B001E
:1003140013449B000B4408331B681846FFF7AAFFDD
:100324001E4B59691E4B1A681E4813469B00134402
:100334009B0003441B68012202FA03F3DB43174AC0
:100344000B405361184B5969154B1A6815481346ED
:100354009B0013449B00034404331B68012202FAEC
:1003640003F3DB43104A0B4053610D4B1A680F4BE8
:100374001B6903F00103002B0CBF01230023DBB234
:100384001846084913469B001344034402339B0058
:100394000B445B68024A136092E700BF000002400E
:1003A4007000002000000020000402400008024009
:1003B40080B400AF5F4B1B6B5E4A43F001031363D1
:1003C4005C4B1B6B5B4A43F002031363594B1B6B7F
:1003D400584A43F004031363574B1B68564A23F4EB
:1003E40000231360544B1B68534A43F48023136067
:1003F400514B5B68504A23F4007353604E4B5B6966
:100404004D4A23F4007353614B4B1B684A4A23F44F
:1004140000531360484B1B68474A43F480531360EE
:10042400454B5B68444A23F040035360424B5B698D
:10043400414A23F0400353613F4B1B683E4A23F477
:10044400004313603C4B1B683B4A43F480431360F6
:10045400394B5B68384A23F080035360364B5B6941
:10046400354A23F080035361344B1B68334A23F429
:1004740000131360314B1B68304A43F4801313603C
:100484002E4B5B682D4A23F4806353602B4B5B69CE
:100494002A4A23F480635361284B1B68274A23F4B8
:1004A40000731360254B1B68244A43F48073136064
:1004B400224B5B68214A23F0100353601F4B5B6996
:1004C4001E4A23F0100353611C4B1B681B4A23F480
:1004D40000631360194B1B68184A43F4806313606C
:1004E400164B5B68154A23F020035360134B5B697A
:1004F400124A23F020035361114B1B68104A23F066
:10050400020313600E4B1B680D4A23F001031360B2
:100514000B4BDB680A4A23F00203D360084BDB6809
:10052400074A43F00103D36000BFBD465DF8047B76
:10053400704700BF0038024000000240000402403F
:100544000008024080B400AF064BD3F88830054A57
:1005540043F47003C2F8883000BFBD465DF8047BE5
:10056400704700BF00ED00E00D488546FFF7EAFF45
:100574000C480D490D4A002302E0D458C4500433FA
:10058400C4188C42F9D30A4A0A4C002301E01360D0
:100594000432A242FBD300F011F8FFF78BFEFEE712
:1005A400000002200000002054000020280600085B
:1005B4005400002074000020FEE7000070B50D4DCB
:1005C4000D4C641BA4100026A64209D10B4D0C4C03
:1005D40000F018F8641BA4100026A64205D170BDD3
:1005E40055F8043B98470136EEE755F8043B984725
:1005F4000136F2E72006000820060008200600085D
:1006040024060008F8B500BFF8BC08BC9E46704735
:0C061400F8B500BFF8BC08BC9E4670475B
:04062000E9010008E4
:04062400C501000804
:10062800070000000A00000064000000000000004D
:1006380001000000060000000A000000C8000000D9
:100648000200000002000000090000000500000090
:100658006400000003000000020000000900000020
:1006680004000000C80000000000000000000000B6
:040678000024F40066
:040000050800056D7D
:00000001FF
